:020000040800F2
:10000000F816002021020008DF1000085710000831
:10001000DD1000088B030008BD140008000000007C
:10002000000000000000000000000000890100083E
:100030008D03000800000000CD0100089D1200089B
:100040003B0200083B0200083B0200083B0200089C
:100050003B0200083B0200083B0200083B0200088C
:100060003B0200083B0200083B0200083B0200087C
:100070003B0200083B0200083B0200083B0200086C
:100080003B0200083B0200083B0200083B0200085C
:100090003B0200083B0200083B0200083B0200084C
:1000A0003B0200083B0200083B0200083B0200083C
:1000B0003B0200083B020008291300083B0200082D
:1000C0003B0200083B0200083B0200083B0200081C
:1000D0003B0200083B0200083B0200083B0200080C
:1000E0003B0200083B0200083B02000800F002F857
:1000F00000F03AF80AA090E8000C82448344AAF188
:100100000107DA4501D100F02FF8AFF2090EBAE885
:100110000F0013F0010F18BFFB1A43F0010318473B
:10012000A8200000C8200000103A24BF78C878C179
:10013000FAD8520724BF30C830C144BF04680C60ED
:10014000704700000023002400250026103A28BF35
:1001500078C1FBD8520728BF30C148BF0B60704739
:100160001FB51FBD10B510BD00F0D6F81146FFF742
:10017000F7FF01F0BBF900F0F4F803B4FFF7F2FF6A
:1001800003BC00F0FBF80000224B19680868B0E8D7
:10019000F00F80F30988BFF36F8F4FF0000080F3FA
:1001A00011884EF00D0E70470000000006480068F0
:1001B000006880F3088862B661B6BFF34F8FBFF363
:1001C0006F8F00DF00BF00BF08ED00E0EFF3098094
:1001D000BFF36F8F0F4B1A6820E9F00F106008B55E
:1001E0004FF0500080F31188BFF34F8FBFF36F8F34
:1001F00001F0D2FD4FF0000080F31188BDE8084007
:1002000019680868B0E8F00F80F30988BFF36F8FB2
:10021000704700BF24000020EFF305807047000006
:100220000948804709480047FEE7FEE7FEE7FEE78A
:10023000FEE7FEE7FEE7FEE7FEE7FEE704480549C6
:10024000054A064B7047000027130008ED00000820
:10025000F8100020F8160020F8120020F8120020F4
:1002600010B5203AC0F00B80B1E81850203AA0E851
:100270001850B1E81850A0E81850BFF4F5AF5FEA85
:10028000027C24BFB1E81850A0E8185044BF18C938
:1002900018C0BDE810405FEA827C24BF51F8043BDF
:1002A00040F8043B08BF7047D20728BF31F8023B33
:1002B00048BF11F8012B28BF20F8023B48BF00F8C7
:1002C000012B70474FF0000200B513469446964646
:1002D000203922BFA0E80C50A0E80C50B1F1200159
:1002E000BFF4F7AF090728BFA0E80C5048BF0CC007
:1002F0005DF804EB890028BF40F8042B08BF704765
:1003000048BF20F8022B11F0804F18BF00F8012BD6
:100310007047704770477047754600F02BF8AE463F
:1003200005006946534620F00700854618B020B501
:10033000FFF784FFBDE820404FF000064FF00007B4
:100340004FF000084FF0000B21F00701AC46ACE87D
:10035000C009ACE8C009ACE8C009ACE8C0098D46EA
:10036000704710B50446AFF300802046BDE810404A
:10037000FFF703BF0048704798100020014918207C
:10038000ABBEFEE7260002007047FEE770470000A4
:1003900070B5044600F008F90546601C02D0044818
:1003A0000078044400F000F9401BA042FAD370BD6D
:1003B000140000202DE9F84FDFF8B891002409F16E
:1003C000040A0AF1040B23460F270BF1040EC9E0BF
:1003D0000125A5402A40AA427DD1674ED1F804C02C
:1003E000ACEB0608B44532D014DCBCF1030F3AD0B4
:1003F00009DCBCF1000F2AD0BCF1010F1CD0BCF10C
:10040000020F31D11DE0BCF1110F17D0BCF1120F5A
:100410002AD119E0B8F5881F19D006DCB8F5803F5D
:1004200015D0B8F5801F1FD111E0B8F5001F0ED010
:10043000B8F5041F18D10AE0CB6815E0CB681B1D86
:1004400012E0CB6808330FE0CB680C330CE08B680C
:100450002BB1012B4FF0080303D0456104E00423C6
:1004600002E0056100E00023FF2A01D8064601E012
:1004700000F104064FEA840501D9A5F12005D6F85C
:10048000008007FA05FC28EA0C0803FA05F548EA9B
:100490000508C6F800804D68ED0062D5374DAE699D
:1004A00046F00106AE61AD6924F0030605F00105D2
:1004B0000095334D06EB050CDCF80850A607360F07
:1004C00007FA06F825EA0805DFF8B880404503D1A9
:1004D0004FF0000817E044E0DFF8AC80404502D15F
:1004E0004FF001080FE0DFF8A480404502D14FF043
:1004F000020808E0DFF89880404502D14FF0030879
:1005000001E04FF0040808FA06F848EA0508CCF8BC
:1005100008804D68D9F80060ED034D4601D51643BB
:1005200000E096432E604D68DAF80060AD03554652
:1005300001D5164300E096432E604D68DBF800605D
:10054000ED025D4601D5164300E096432E604D68EE
:10055000DEF80060AD02754601D5164300E0964313
:100560002E60641C0D682A46E5407FF431AFBDE87B
:10057000F88F00000004014000001110001002403C
:100580000000014000080140000C01400010014043
:10059000001401408068084000D0012070470AB173
:1005A000016170470904FBE701488068704700005B
:1005B000140000200248816802781144816070476D
:1005C00014000020074810B5016841F010010160D7
:1005D000032000F095F80F2000F006F800F03EF838
:1005E000002010BD0020024000B5014687B0002267
:1005F0001E2000F065F81E2000F054F81348C16971
:1006000041F00401C161C06905A900F00400069031
:10061000684600F01DF900F03BF90D494000B0FBC1
:10062000F1F10D480B4A491E0260416040F2E73289
:100630000021C0E90321816000F012FB10B101200C
:1006400007B000BD044800F039FBF9E70010024094
:1006500040420F0000080040600300200F4808B52A
:10066000816941F001018161816901F0010100911D
:10067000C16941F08051C161C069002200F0805021
:1006800000900F21901E00F01BF80548416821F0F2
:10069000E06141F00071416008BD000000100240BF
:1006A00000000140002809DB00F01F0201219140F9
:1006B0004009800000F1E020C0F800117047000000
:1006C000F0B40E4B1B680C46C3F30223C3F10705BD
:1006D000042D00D90425191D072901D2002300E0AB
:1006E000DB1E012606FA05F1491E214099409E4075
:1006F000761E16403143F0BC00F0E1BE0CED00E088
:10070000064900F0070208684FF6FF03184040EA68
:100710000220034A10430860704700000CED00E01F
:100720000000FA052DE9F0470F46050061D0434E61
:10073000306800F00700B84209D2306820F00700A6
:1007400038433060306800F00700B84251D1286863
:100750003B4C810712D5400703D5606840F4E06048
:1007600060602878000703D5606840F460506060DE
:100770006068A96820F0F000084360602878C0072E
:1007800028D06868012810D02168022810D0890775
:1007900000292EDA616821F0030101436160FFF74F
:1007A00003FF804641F288390DE021688903EFE7B5
:1007B0008901EDE7FFF7F8FEA0EB0801494502D9F2
:1007C0000320BDE8F0876068696800F00C00B0EBBA
:1007D000810FEFD1306800F00700B8420BD93068C4
:1007E00020F0070038433060306800F00700B8425E
:1007F00001D00120E5E72878400705D56068E96861
:1008000020F4E060084360602878000706D560683F
:10081000296920F4605040EAC100606000F058F897
:100820006168084AC1F30311515CC8400649086079
:1008300006480068FFF7D8FE0020C2E7002002400B
:10084000001002409821000820000020180000201D
:100850000F2202600C4A536803F00303436053689D
:1008600003F0F0038360536803F4E063C3605268ED
:100870004FF4E06303EAD20202610448006800F02A
:10088000070008607047000000100240002002408E
:100890000448054900684968044AC1F30221515CD3
:1008A000C84070472000002000100240A821000826
:1008B0000448054900684968044AC1F3C221515CF3
:1008C000C84070472000002000100240A821000806
:1008D00012A185B00FC98DE80F0014A0144A00685A
:1008E00004905168134801F00C03042B10D0082B1E
:1008F0000ED1C1F38343C9031DF803000AD5516823
:1009000004AAC1F34041515C0A4A5043B0FBF1F0E4
:1009100005B0704708494843FAE7000002030405A0
:10092000060708090A0B0C0D0E0F1010010200003B
:100930000010024000127A0000093D002DE9F84F36
:10094000040070D02078C04DC00749D06868C0F35B
:100950008100012807D06868C0F38100022809D10E
:100960006868C00306D52868800339D56068002808
:10097000E7D035E06068B0F5803F0BD010B1B0F53E
:10098000A02F11D0286820F480302860286820F437
:10099000802002E0286840F480302860606890B1D0
:1009A000FFF702FE06460AE0286840F4802028602F
:1009B000F0E700BFFFF7F8FD801B642873D82868B4
:1009C0008003F7D50CE0FFF7EFFD064605E000BF1A
:1009D000FFF7EAFD801B6428F0D828688003F7D46D
:1009E00020789A4E80074FF001094FF0000839D562
:1009F000686810F00C0F07D06868C0F38100022807
:100A000009D16868C00306D42868800714D5206916
:100A1000012808D110E02069B0B1C6F80090FFF7B6
:100A2000C3FD074605E00AE1FFF7BEFDC01B022833
:100A3000C4D828688007F7D52868616920F0F800D5
:100A400040EAC10028600DE0C6F80080FFF7ACFD69
:100A5000074604E0FFF7A8FDC01B022823D828683A
:100A60008007F7D4207800072CD57948A169D9B13F
:100A7000C0F80090FFF798FD074604E0FFF794FDEB
:100A8000C01B02280FD8686A8007F7D571484FF459
:100A9000FA510068B0FBF1F0009000BF0098411ED1
:100AA0000091FAD20EE080E0C0F80080FFF77CFDF4
:100AB000074604E0FFF778FDC01B022875D8686A76
:100AC0008007F7D42078400760D5E8690027C00088
:100AD00008D4E86940F08050E861E869012700F037
:100AE000805000905C480168C90513D401688346B2
:100AF00041F480710160FFF757FD824606E000BFB8
:100B0000FFF752FDA0EB0A0064284ED8DBF8000086
:100B1000C005F5D5E06801280AD008B1052813D032
:100B2000286A20F001002862286A20F0040002E010
:100B3000286A40F001002862E06841F2883B98B1E1
:100B4000FFF732FD82460BE0286A40F0040028627D
:100B5000EEE700BFFFF728FDA0EB0A0159455AD880
:100B6000286A8007F6D50CE0FFF71EFD824605E0F7
:100B7000FFF71AFDA0EB0A0159454CD8286A8007F7
:100B8000F6D41FB1E86920F08050E861E06988B3CD
:100B90006968C1F38101022944D00228C6F8608047
:100BA00004D0FFF701FD044638E034E0FFF7FCFC19
:100BB000074604E0FFF7F8FCC01B02282BD8286882
:100BC0008001F7D4206AB0F5803F05D16868A1683C
:100BD00020F4003008436860D4E9080108436968DC
:100BE00021F4741108436860C6F86090FFF7DCFCDC
:100BF000044606E025E000BFFFF7D6FC001B0228F4
:100C000009D828688001F7D51BE000BFFFF7CCFCAE
:100C1000001B022802D90320BDE8F88F2868800154
:100C2000F4D40EE00128F7D06868226A00F480311D
:100C3000914204D1616A00F47010884201D0012011
:100C4000EAE70020E8E7000000100240000042420E
:100C5000800442422000002000700040704770472E
:100C600010B5040003D094F83D0010B107E0012056
:100C700010BD002084F83C00204600F01EF8022041
:100C800084F83D00211D206800F054FB012084F809
:100C9000460084F83E0084F83F0084F8400084F861
:100CA000410084F8420084F8430084F8440084F84A
:100CB000450084F83D00002010BD704790F83D10BD
:100CC000012901D001207047022180F83D10016800
:100CD000CA6842F00102CA6000680B49884208D025
:100CE000B0F1804F05D00949884202D008498842B6
:100CF00004D1816801F00701062903D0016841F0A1
:100D00000101016000207047002C014000040040F8
:100D100000080040704770B50446006801694FF054
:100D20000005C943890715D4C168C943890711D48F
:100D3000E91E016101202077206880698007204634
:100D400002D0FFF7E7FF04E000F098F8204600F03B
:100D500096F8257720680169C943490717D4C16807
:100D6000C943490713D46FF00401016102202077C1
:100D70002068806910F4407F204602D0FFF7CAFF48
:100D800004E000F07BF8204600F079F82577206831
:100D90000169C943090716D4C168C943090712D4B8
:100DA0006FF008010161042020772068C069800786
:100DB000204602D0FFF7AEFF04E000F05FF82046C7
:100DC00000F05DF8257720680169C943C90617D48A
:100DD000C168C943C90613D46FF01001016108202E
:100DE00020772068C06910F4407F204602D0FFF7CA
:100DF00091FF04E000F042F8204600F040F825772B
:100E000020680169C943C90708D1C168C943C90736
:100E100004D1891E0161204600F032F82068016982
:100E2000C943090609D4C168C943090605D46FF04E
:100E3000800101612046FFF711FF20680169C94365
:100E4000490609D4C168C943490605D46FF0400179
:100E50000161204600F01EF820680169C943890637
:100E60000BD4C168C943890607D46FF02001016122
:100E70002046BDE87040FFF7F2BE70BD7047704776
:100E800000680349884201D1FFF794BB7047000016
:100E900000080040704770B5040004D094F83D008D
:100EA000002510B106E0012070BD84F83C502046BA
:100EB00000F022F8242084F83D002068C16821F465
:100EC0000051C160204600F06BFA2068016921F4EE
:100ED000904101612068416921F02A014161206847
:100EE000C16841F40051C1602564202084F83D00B0
:100EF00084F83E00002070BD70B586B000240094D8
:100F0000019402940394234E036823490220032290
:100F1000224DB34219D18B6943F480438B618B69B5
:100F200003F4804304938B6943F004038B61896964
:100F3000039201F0040104910102CDE90010694619
:100F40002846FFF737FA28151BE0154EB3421FD18C
:100F5000CB6943F40033CB61CB6903F400330493D2
:100F60008B6943F004038B618969039201F00401EA
:100F700004910421CDE9001069462846FFF71AFACA
:100F80000820CDE90004694628460294FFF712FACA
:100F900006B070BD0038014000100240000801405A
:100FA000004400402DE9F843044690F83D001F46F8
:100FB00016460D4620284CD1C5B1BEB194F83C0070
:100FC000012846D0012084F83C004FF00008C4F806
:100FD0004080212084F83D00FFF7E6FAA684814690
:100FE000E684A068B0F5805F03D004E00120BDE88E
:100FF000F883206928B12E465FF0000584F83C8014
:101000000EE00026FAE78021204600F025FAA0B97C
:10101000AEB116F8010B21684860E08C401EE084F8
:10102000E08C4B464FF0000200970028EBD14FF0C8
:101030004001204600F010FA30B10320D7E735F820
:10104000020BC0F30800E6E7202084F83D000020F2
:10105000CDE70220CBE7FEE7F0B585B000241C48C1
:101060000094019402940394816941F0200181610C
:10107000816901F020010491816941F004018161DD
:10108000816901F004010491816941F008018161E5
:101090008069104F00F008004FF480760490002221
:1010A00031463846FFF77BFA032001258DE83100F1
:1010B00069460948FFF77EF90220CDE90240CDE9F3
:1010C000006569463846FFF775F905B0F0BD0000C8
:1010D0000010024000080140000C0140FEE7FEE75E
:1010E000354E364D41F288384FF001090027286906
:1010F00000F09AFAFFF758FAA968401A404509D952
:101100002E49C8230122891C2D48FFF74BFFFFF70A
:101110004BFAA86001213046FFF73CFA38B16F70F6
:1011200002213046FFF736FAF0B12F70DFE768781A
:101130000028F5D11420FFF72BF901213046FFF7E5
:1011400029FA0028ECD185F8019028790122401C69
:10115000287111021B48FFF722FA286900F04AFAA9
:10116000002000F061FADBE728780028BFD11420C6
:10117000FFF70EF902213046FFF70CFA0028B6D12E
:1011800085F800902879401C287163240B49EC7085
:10119000C8230122C91C0A48FFF704FF1E20FFF7DD
:1011A000F7F8641E14F0FF04F0D102213046FFF777
:1011B000F1F90028F9D09AE7000C01400000002066
:1011C0008400002000080140304D314C41F2883746
:1011D0004FF00108002600BFFFF7E6F9A168401AAA
:1011E000B84209D92A49C8230122891C2948FFF796
:1011F000D9FEFFF7D9F9A06002212846FFF7CAF906
:1012000038B1267001212846FFF7C4F910B3667083
:10121000E2E720780028F5D11420FFF7B9F8022181
:101220002846FFF7B7F90028ECD184F80080207930
:101230001749401C20710520E070C8230122C91CF9
:101240001448FFF7AFFE02212846FFF7A3F9002854
:10125000F9D0D7E760780028BED11420FFF798F8BE
:1012600001212846FFF796F90028B5D184F80180BE
:1012700060790022401C60714FF480710648FFF7CE
:101280008EF9E06800F0B6F9A6E70000000C014016
:1012900000000020840000200008014010B550200C
:1012A00080F31188BFF34F8FBFF36F8F00F04EFEB6
:1012B00018B104494FF080500860002080F3118875
:1012C00010BD000004ED00E030B58FB02821684665
:1012D000FEF7F8FF14210AA8FEF7F4FF0121080425
:1012E000CDE900100024029402250491CDE90750B5
:1012F0004FF4E01009906846FFF720FB08B172B682
:10130000FEE70F20CDE90A054FF48060CDE90C40DF
:1013100002210AA80E94FFF705FA002801D072B640
:10132000FEE70FB030BD70470148FFF7F4BC000086
:1013300060030020F0B50268164B174C174D4FF0B4
:101340008047984205D0B84203D0A04201D0A842BD
:1013500003D122F070064A683243984205D0B84261
:1013600003D0A04201D0A84203D122F44074CA683D
:1013700022434C6922F08002224302608A68C262E2
:101380000A688262984201D10969016301214161C1
:10139000F0BD0000002C01400004004000080040A7
:1013A00070B5044600680169E26821F440511143B8
:1013B00001612169A0680843616908432168CA681E
:1013C00041F20C639A430243CA6020684169A269F2
:1013D00021F44071114341611E492068884202D1C5
:1013E000FFF766FA01E0FFF753FA00EBC00101EBEB
:1013F0000012606864218000B2FBF0F3B3FBF1F3EC
:101400006FF018067343B2FBF0F5B2FBF0F605EB94
:101410008305322303EB0515B5FBF1F5B6FBF1F6B9
:1014200005F0F00505EB0615B2FBF0F6B2FBF0F0A7
:10143000B0FBF1F06FF01802504306EB800003EBB5
:101440000010B0FBF1F0216800F00F002844886024
:1014500070BD0000003801402DE9F0419846174664
:101460000E460446069D1DE0681C1BD02DB1FFF7FB
:101470009BF8A0EB0800A84214D92068C16821F4A9
:10148000D071C1602068416921F0010141612020D3
:1014900084F83D0084F83E00002084F83C000320DE
:1014A000BDE8F0812068006836EA000004D0002022
:1014B000B842D9D00020F3E70120F9E7FEE7090799
:1014C000090E002804DB00F1E02080F800147047CA
:1014D00000F00F0000F1E02080F8141D7047EFF3DA
:1014E0000580002800D00120704700008EB0FFF773
:1014F00069F8FFF7E9FEFFF7AFFD1F481D494FF4FC
:10150000E13500240160C0E901540C26C460C0E943
:1015100004468461C461FFF7BEFC08B172B6FEE701
:101520001548164944300160C0E90154C460C0E95F
:1015300004468461C461FFF7AEFC08B172B6FEE7F1
:101540001C220F496846FEF78BFE0021684600F01A
:1015500026F80C4C0A491C22E0601C3107A8FEF753
:101560007FFE002107A800F01AF8206100F012F8B1
:10157000FEE70000003801408400002000440040E5
:10158000602100080000002001460020842900D0CE
:10159000C81C704710B500F063FB002010BD7FB57C
:1015A0000D4604464169B0F9080081B1A16971B1E5
:1015B000FFF7EAFFD4E905128DE80700D4E900102F
:1015C0002B46226900F097FC039004B070BDFFF732
:1015D000DBFF03A9CDE90001208A2B4682B2D4E9C2
:1015E000001000F05BFC012801D00020EDE703981B
:1015F000EBE7000010B50446FFF771FF0028204616
:101600000BD000F069FD012809D1064900070860E8
:10161000BFF34F8FBFF36F8F01E000F0E3FA0020BC
:1016200010BD000004ED00E010B500F04FFB0020FD
:1016300010BD00002DE9F041054600F035FA2E4CB2
:101640002069401C206120682C4F10B1E06940B334
:101650002DE025602069012829D1002606EB8600AF
:1016600007EB800000F006FA761C072EF6D323481D
:101670008C3000F0FFF92148A03000F0FBF91F4842
:10168000B43000F0F7F91D48C83000F0F3F91B48FA
:10169000DC3000F0EFF919488C3060601430A06045
:1016A00005E02068E96AC06A884200D82560E06ADF
:1016B000401CE062E96A0120A26988401043A061F1
:1016C00001EB810007EB8000291D00F0E1F900F03B
:1016D0000BFAE06900280CD02068E96AC06A8842E9
:1016E00007D207494FF080500860BFF34F8FBFF318
:1016F0006F8FBDE8F081000024000020A8030020C7
:1017000004ED00E010B5044690F8510058B10128EE
:101710000CD002280FD0502080F31188BFF34F8FD8
:10172000BFF36F8FFEE7206B00F0F2F92046BDE8B3
:10173000104000F0EDB910BD10484FF44061420771
:1017400006D0C01D0D4920F00700411AC1F54061C7
:101750000B4A00230144C2E900030839103A21F082
:10176000070111604B600B600B1AC0E90013936016
:101770004FF000405360D060704700009804002094
:1017800070000020144E154CA6F1C8074FF0805889
:10179000DFF84C9012E000BF00F086F9F068C568F1
:1017A000281D00F049F92069401E2061E068401EB4
:1017B000E06000F099F92846FFF7A4FFE0680028F0
:1017C000EAD138680128F9D9C9F80080BFF34F8FF2
:1017D000BFF36F8FF2E700007004002024000020A8
:1017E00004ED00E02DE9F0479A46DDE909848146E1
:1017F0006FF00303206B03EB82021044089D20F07E
:101800000706700707D0502080F31188BFF34F8F71
:10181000BFF36F8FFEE723180A5C83F834200A5C5D
:1018200012B1401C1028F6D3002784F84370072D0E
:1018300000D30625E562C4E91157201D00F025F903
:1018400004F1180000F021F92461C5F10700646279
:10185000A061E76484F8507052464946304600F073
:10186000D9F82060B8F1000F01D0C8F80040BDE8F9
:10187000F087000030B5114900E011460A68824245
:10188000FBD34B685C18844203D14068184448601D
:10189000084643681C18944209D1084C103C24683F
:1018A000A24209D052681A4442600A681268026073
:1018B000814200D0086030BD0460F9E7700000206C
:1018C00006484168096829B14168C968C96849681A
:1018D000016370474FF0FF31FAE700002400002059
:1018E00008484068401C4FF0500080F3118804D035
:1018F000BFF34F8FBFF36F8FFEE7BFF34F8FBFF381
:101900006F8FFEE778000020002150B10A4B42693A
:101910009A420FD1806AA3F1280290420AD040B1C6
:1019200008E0502080F31188BFF34F8FBFF36F8F13
:10193000FEE7012108467047840400202DE9F041AC
:101940000546002700F020FA314E306808B9FFF74D
:10195000F3FEF06805424BD1C5B3083568070ED0D9
:1019600005F00700C0F108000544680707D05020C3
:1019700080F31188BFF34F8FBFF36F8FFEE72DB356
:101980007068854234D82248103001460C6801E066
:1019900020460C466168A94202D221680029F7D18D
:1019A00031688C4224D0076821680160606808377C
:1019B000411B10290FD96019420708D0502080F32D
:1019C0001188BFF34F8FBFF36F8FFEE710E04160C8
:1019D0006560FFF74FFF61687068401A7060B26819
:1019E000904200D2B060F06801430020C4E90001D9
:1019F00000F010FB780707D0502080F31188BFF368
:101A00004F8FBFF36F8FFEE73846BDE8F0810000CF
:101A10006000002010B5031F4FF080741C601B1F76
:101A200021F001011960191F024B0B601439403875
:101A30000A6010BDE1180008D0E9013201699A601E
:101A4000D0E901235A604A68824201D182684A6023
:101A5000002202610868401E0860086870470000A4
:101A6000034B036003F1540008608020106070474E
:101A70000C01002000F108014FF0FF32C0E9011213
:101A8000C160016100210160704700210161704760
:101A900042684A6093688B609368596091600861FE
:101AA0000168491C01607047502080F31188BFF322
:101AB0004F8FBFF36F8F0A494868401C4860012868
:101AC0000CD10848006810F0FF0F07D0502080F3B9
:101AD0001188BFF34F8FBFF36F8FFEE77047000091
:101AE0007800002004ED00E00849486828B1401E55
:101AF000486001D180F311887047502080F311882D
:101B0000BFF34F8FBFF36F8FFEE700007800002018
:101B100070B5002827D0144DA0F108046168E8686A
:101B2000014207D1502080F31188BFF34F8FBFF3DC
:101B30006F8FFEE722683AB1502080F31188BFF31F
:101B40004F8FBFF36F8FFEE78143616000F01CF998
:101B500060686968084468602046FFF78BFEBDE84E
:101B6000704000F057BA70BD600000204FF0E020D8
:101B700000210161816105494FF47A720968B1FB66
:101B8000F2F1491E416107210161704720000020E8
:101B900010B5FEF741FB114910280ED300F1E020EB
:101BA00090F8F0030A78904207D2502080F3118811
:101BB000BFF34F8FBFF36F8FFEE709480068896856
:101BC00000F4E060884207D9502080F31188BFF309
:101BD0004F8FBFF36F8FFEE710BD0000780000202D
:101BE0000CED00E070B504002BD01A4D286884423B
:101BF0002FD0FFF759FF2046FFF786FEE8B1201DE2
:101C0000FFF71AFFE06A0121AA6981401143A96127
:101C1000114900EB800001EB8000211DFFF738FF28
:101C2000E06A2968C96A884207D30C494FF080509E
:101C30000860BFF34F8FBFF36F8FBDE87040FFF7B1
:101C400053BF502080F31188BFF34F8FBFF36F8FC6
:101C5000FEE770BD24000020A803002004ED00E092
:101C600010B586B00024039405AA04A903A804941F
:101C7000FFF7F6FEDDE903010094CDE90110002332
:101C80000EA11048059A00F036F90F490028486364
:101C900011D0502080F31188BFF34F8FBFF36F8FA7
:101CA0004FF0FF3008630120C8614C6106B0BDE809
:101CB000104000F09FB806B010BD000049444C45EC
:101CC00000000000851700082400002070B50446BD
:101CD000FFF7EAFE294D04B92C68201DFFF7ACFE82
:101CE00058B9E06A264A00EB800152F8211021B968
:101CF00001218140A8698843A861A06A18B104F154
:101D00001800FFF799FE1E48211DDC30FFF7C0FECA
:101D100094F850000026012801D184F85060FFF7A4
:101D2000E3FEE86928B1FFF7BFFEFFF7C9FDFFF743
:101D3000DBFE2868844213D1E86990B1A86B38B102
:101D4000502080F31188BFF34F8FBFF36F8FFEE7F2
:101D50000C494FF080500860BFF34F8FBFF36F8F77
:101D600070BD0748DC3000682969884201D12E60C7
:101D700070BDBDE8704000F00FB8000024000020E6
:101D8000A803002004ED00E00248816B491C816338
:101D900070470000240000201448816B11B101211C
:101DA00041627047002141628169B1FA81F1C1F15C
:101DB0001F0101EB81020E4951F822306BB101EB9A
:101DC000820101F108034A6852684A609A4201D1CF
:101DD00052684A60D16801607047502080F31188D2
:101DE000BFF34F8FBFF36F8FFEE70000240000208A
:101DF000A80300201CB5264908780190FF20087030
:101E000008788DF800009DF800009DF8002000F093
:101E1000F000904207D0502080F31188BFF34F8F1D
:101E2000BFF36F8FFEE79DF800001A4B00F05000E3
:101E300018700720986005E09DF8002052008DF88A
:101E40000020401E9DF800201206F5D4986003285B
:101E500007D0502080F31188BFF34F8FBFF36F8FEF
:101E6000FEE74FF440709860019808700A480168D6
:101E700041F470010160016841F070410160FFF7B9
:101E800075FE00205860FEF791F900201CBD00008F
:101E900000E400E07800002020ED00E02DE9FF5F85
:101EA0008346DDE90E87994616468A469000FFF77D
:101EB00045FD05001CD05420FFF740FD040014D060
:101EC0000020256384F85100CDE90240CDE9008768
:101ED0004B46324651465846FFF784FC2046FFF7F2
:101EE000A9FB012004B0BDE8F09F2846FFF710FED3
:101EF0004FF0FF30F6E7F0B585B0DDE90B640A9DE1
:101F0000A6B1DCB1542700972663022684F85160FD
:101F1000002604AFCDE90246CDE90057FFF762FC89
:101F20002046FFF787FB049805B0F0BD502080F3F2
:101F30001188BFF34F8FBFF36F8FFEE7502080F300
:101F40001188BFF34F8FBFF36F8FFEE72DE9F0418C
:101F50002E4C0027A06B40B1206A401C2062606AB2
:101F600000B101273846BDE8F0816669761C6661DC
:101F700013D16068006838B1502080F31188BFF336
:101F80004F8FBFF36F8FFEE76068A1686160A0604C
:101F9000A06A401CA062FFF793FC206BDFF8708002
:101FA000864209D36068006880B16068C068C5680F
:101FB000686886420DD220632068C06A00EB800109
:101FC00058F821000128CAD90127C8E74FF0FF308F
:101FD000F1E7281DFFF730FDA86A18B105F11800D8
:101FE000FFF72AFDE86A0121A26981401143A1613E
:101FF00000EB800108EB8100291DFFF749FDE86A2D
:102000002168C96A8842CDD30127CBE7240000208C
:10201000A80300202DE9F0472C4D00242746A86B8B
:1020200038B1FFF741FDA86B401EA863A86B40B113
:1020300046E0502080F31188BFF34F8FBFF36F8FBE
:10204000FEE72969224E0120D1B3A6F1B4098046EA
:102050003068E8B1F068C46804F11800FFF7ECFCE0
:10206000201DFFF7E9FCE06AAA6908FA00F11143B4
:10207000A96100EB800109EB8100211DFFF708FD3C
:10208000E06A2968C96A8842E2D3C5F82480DFE79C
:102090000CB1FFF715FC2C6A44B14646FFF756FF1A
:1020A00000B16E62641EF9D100202862686A38B1FE
:1020B0000849012738070860BFF34F8FBFF36F8FC0
:1020C000FFF712FD3846BDE8F0870000240000202D
:1020D0005C04002004ED00E02DE9F041002704003D
:1020E00015D0FFF755FD5020EFF3118580F31188CF
:1020F000BFF34F8FBFF36F8F2046FFF705FC30B360
:10210000154EB06B58B104F1180114481DE0502071
:1021100080F31188BFF34F8FBFF36F8FFEE7E06A44
:102120003168C96A884200D30127201DFFF784FC6B
:10213000E16A0120B26988401043B06101EB81007F
:102140000649B43901EB8000211DFFF7A1FC85F39E
:1021500011883846BDE8F081240000205C0400208E
:10216000BC210008E1100008000000000000000091
:10217000800000000000000000000000B021000806
:10218000C9110008FFFF00000000000080000000EF
:10219000000000000000000000000000000000003F
:1021A00001020304060708090000000001020304FD
:1021B0006E6F726D616C5461736B00006465666173
:1021C000756C745461736B00E821000800000020F6
:1021D00084000000280100086C2200088400002010
:1021E00074160000440100080000630000000000B5
:1021F00000000000000000000000000001000000DE
:1022000010000000000000000024F40000000000A6
:1022100000000000000000000000000000000000BE
:1022200000000000000000000000000000000000AE
:10223000000000000000000000000000000000009E
:10224000000000000000000000000000000000008E
:10225000000000000000000000000000000000007E
:0C22600000000000AAAAAAAA00000000CA
:04000005080000ED02
:00000001FF
