:020000040800F2
:10000000081700202102000833170008FF15000818
:10001000311700088B030008691D0008000000006C
:10002000000000000000000000000000890100083E
:100030008D03000800000000CD010008A918000889
:100040003B0200083B0200083B0200083B0200089C
:100050003B0200083B0200083B0200083B0200088C
:100060003B0200083B0200083B0200083B0200087C
:100070003B0200083B0200083B0200083B0200086C
:100080003B0200083B0200083B0200083B0200085C
:100090003B0200083B0200083B0200083B0200084C
:1000A0003B0200083B0200083B0200083B0200083C
:1000B0003B0200083B020008351900083B0200081B
:1000C0003B0200083B0200083B0200083B0200081C
:1000D0003B0200083B0200085D1D00083B020008CF
:1000E0003B0200083B0200083B02000800F002F857
:1000F00000F03AF80AA090E8000C82448344AAF188
:100100000107DA4501D100F02FF8AFF2090EBAE885
:100110000F0013F0010F18BFFB1A43F0010318473B
:10012000B02E0000D02E0000103A24BF78C878C14D
:10013000FAD8520724BF30C830C144BF04680C60ED
:10014000704700000023002400250026103A28BF35
:1001500078C1FBD8520728BF30C148BF0B60704739
:100160001FB51FBD10B510BD00F0D6F81146FFF742
:10017000F7FF01F011FE00F0F4F803B4FFF7F2FF0F
:1001800003BC00F0FBF80000224B19680868B0E8D7
:10019000F00F80F30988BFF36F8F4FF0000080F3FA
:1001A00011884EF00D0E70470000000006480068F0
:1001B000006880F3088862B661B6BFF34F8FBFF363
:1001C0006F8F00DF00BF00BF08ED00E0EFF3098094
:1001D000BFF36F8F0F4B1A6820E9F00F106008B55E
:1001E0004FF0500080F31188BFF34F8FBFF36F8F34
:1001F00002F0B6FA4FF0000080F31188BDE8084025
:1002000019680868B0E8F00F80F30988BFF36F8FB2
:10021000704700BF30000020EFF3058070470000FA
:100220000948804709480047FEE7FEE7FEE7FEE78A
:10023000FEE7FEE7FEE7FEE7FEE7FEE704480549C6
:10024000054A064B7047000033190008ED0000080E
:1002500008110020081700200813002008130020B0
:1002600010B5203AC0F00B80B1E81850203AA0E851
:100270001850B1E81850A0E81850BFF4F5AF5FEA85
:10028000027C24BFB1E81850A0E8185044BF18C938
:1002900018C0BDE810405FEA827C24BF51F8043BDF
:1002A00040F8043B08BF7047D20728BF31F8023B33
:1002B00048BF11F8012B28BF20F8023B48BF00F8C7
:1002C000012B70474FF0000200B513469446964646
:1002D000203922BFA0E80C50A0E80C50B1F1200159
:1002E000BFF4F7AF090728BFA0E80C5048BF0CC007
:1002F0005DF804EB890028BF40F8042B08BF704765
:1003000048BF20F8022B11F0804F18BF00F8012BD6
:100310007047704770477047754600F02BF8AE463F
:1003200005006946534620F00700854618B020B501
:10033000FFF784FFBDE820404FF000064FF00007B4
:100340004FF000084FF0000B21F00701AC46ACE87D
:10035000C009ACE8C009ACE8C009ACE8C0098D46EA
:10036000704710B50446AFF300802046BDE810404A
:10037000FFF703BF00487047A8100020014918206C
:10038000ABBEFEE7260002007047FEE7704710B5DF
:1003900090F821100022022905D00421816380F801
:1003A0002020012010BD01680B6823F00E030B60B4
:1003B00001680B6823F001030B6090F84030C46BB8
:1003C000012101FA03F3636080F8211080F82020F6
:1003D000104610BD10B590F821100024022903D05A
:1003E0000421816301243DE001680A6822F00E02C5
:1003F0000A6001680A6822F001020A601A4A01686C
:10040000914201D1012121E0174A1432914201D1D8
:1004100010211BE0144A2832914201D1891515E0C0
:10042000114A3C32914201D189140FE00E4A5032F8
:10043000914202D14FF4803108E00B4A643291427C
:1004400002D14FF4801101E04FF08071064A083A62
:100450005160012180F82110002180F82010416BAB
:1004600001B18847204610BD080002402DE9F84F31
:10047000DFF8B891002409F1040A0AF1040B2346BD
:100480000F270BF1040EC9E00125A5402A40AA421E
:100490007DD1674ED1F804C0ACEB0608B44532D02C
:1004A00014DCBCF1030F3AD009DCBCF1000F2AD0F8
:1004B000BCF1010F1CD0BCF1020F31D11DE0BCF129
:1004C000110F17D0BCF1120F2AD119E0B8F5881F0F
:1004D00019D006DCB8F5803F15D0B8F5801F1FD1C4
:1004E00011E0B8F5001F0ED0B8F5041F18D10AE0CE
:1004F000CB6815E0CB681B1D12E0CB6808330FE01A
:10050000CB680C330CE08B682BB1012B4FF0080348
:1005100003D0456104E0042302E0056100E000230C
:10052000FF2A01D8064601E000F104064FEA8405DF
:1005300001D9A5F12005D6F8008007FA05FC28EAC4
:100540000C0803FA05F548EA0508C6F800804D686E
:10055000ED0062D5374DAE6946F00106AE61AD697A
:1005600024F0030605F001050095334D06EB050C5C
:10057000DCF80850A607360F07FA06F825EA080542
:10058000DFF8B880404503D14FF0000817E044E0A1
:10059000DFF8AC80404502D14FF001080FE0DFF8F2
:1005A000A480404502D14FF0020808E0DFF89880AF
:1005B000404502D14FF0030801E04FF0040808FA6B
:1005C00006F848EA0508CCF808804D68D9F80060BC
:1005D000ED034D4601D5164300E096432E604D686D
:1005E000DAF80060AD03554601D5164300E09643A6
:1005F0002E604D68DBF80060ED025D4601D51643C4
:1006000000E096432E604D68DEF80060AD0275464E
:1006100001D5164300E096432E60641C0D682A46FF
:10062000E5407FF431AFBDE8F88F000000040140E1
:1006300000001110001002400000014000080140BD
:10064000000C014000100140001401400AB101619A
:1006500070470904FBE7000001488068704700000C
:1006600020000020024881680278114481607047B0
:1006700020000020074810B5016841F0100101601A
:10068000032000F095F80F2000F006F800F03EF887
:10069000002010BD0020024000B5014687B00022B6
:1006A0001E2000F065F81E2000F054F81348C169C0
:1006B00041F00401C161C06905A900F00400069081
:1006C000684600F01DF900F03BF90D494000B0FB11
:1006D000F1F10D480B4A491E0260416040F2E732D9
:1006E0000021C0E90321816000F046FB10B1012028
:1006F00007B000BD044800F081FBF9E7001002409C
:1007000040420F0000080040700300200F4808B569
:10071000816941F001018161816901F0010100916C
:10072000C16941F08051C161C069002200F0805070
:1007300000900F21901E00F01BF80548416821F041
:10074000E06141F00071416008BD0000001002400E
:1007500000000140002809DB00F01F020121914048
:100760004009800000F1E020C0F80011704700004F
:10077000F0B40E4B1B680C46C3F30223C3F107050C
:10078000042D00D90425191D072901D2002300E0FA
:10079000DB1E012606FA05F1491E214099409E40C4
:1007A000761E16403143F0BC01F0DFBA0CED00E0DC
:1007B000064900F0070208684FF6FF03184040EAB8
:1007C0000220034A10430860704700000CED00E06F
:1007D0000000FA052DE9F0470F46050061D0434EB1
:1007E000306800F00700B84209D2306820F00700F6
:1007F00038433060306800F00700B84251D12868B3
:100800003B4C810712D5400703D5606840F4E06097
:1008100060602878000703D5606840F4605060602D
:100820006068A96820F0F000084360602878C0077D
:1008300028D06868012810D02168022810D08907C4
:1008400000292EDA616821F0030101436160FFF79E
:1008500003FF804641F288390DE021688903EFE704
:100860008901EDE7FFF7F8FEA0EB0801494502D941
:100870000320BDE8F0876068696800F00C00B0EB09
:10088000810FEFD1306800F00700B8420BD9306813
:1008900020F0070038433060306800F00700B842AD
:1008A00001D00120E5E72878400705D56068E968B0
:1008B00020F4E060084360602878000706D560688F
:1008C000296920F4605040EAC100606000F058F8E7
:1008D0006168084AC1F30311515CC84006490860C9
:1008E00006480068FFF7D8FE0020C2E7002002405B
:1008F00000100240982F00082C0000202400002047
:100900000F2202600C4A536803F0030343605368EC
:1009100003F0F0038360536803F4E063C36052683C
:100920004FF4E06303EAD20202610448006800F079
:1009300007000860704700000010024000200240DD
:100940000448054900684968044AC1F30221515C22
:10095000C84070472C00002000100240A82F00085B
:100960000448054900684968044AC1F3C221515C42
:10097000C84070472C00002000100240A82F00083B
:1009800012A185B00FC98DE80F0014A0144A0068A9
:1009900004905168134801F00C03042B10D0082B6D
:1009A0000ED1C1F38343C9031DF803000AD5516872
:1009B00004AAC1F34041515C0A4A5043B0FBF1F034
:1009C00005B0704708494843FAE7000002030405F0
:1009D000060708090A0B0C0D0E0F1010010200008B
:1009E0000010024000127A0000093D002DE9F84F86
:1009F000040070D02078C04DC00749D06868C0F3AB
:100A00008100012807D06868C0F38100022809D15D
:100A10006868C00306D52868800339D56068002857
:100A2000E7D035E06068B0F5803F0BD010B1B0F58D
:100A3000A02F11D0286820F480302860286820F486
:100A4000802002E0286840F480302860606890B11F
:100A5000FFF702FE06460AE0286840F4802028607E
:100A6000F0E700BFFFF7F8FD801B642873D8286803
:100A70008003F7D50CE0FFF7EFFD064605E000BF69
:100A8000FFF7EAFD801B6428F0D828688003F7D4BC
:100A900020789A4E80074FF001094FF0000839D5B1
:100AA000686810F00C0F07D06868C0F38100022856
:100AB00009D16868C00306D42868800714D5206966
:100AC000012808D110E02069B0B1C6F80090FFF706
:100AD000C3FD074605E00AE1FFF7BEFDC01B022883
:100AE000C4D828688007F7D52868616920F0F80025
:100AF00040EAC10028600DE0C6F80080FFF7ACFDB9
:100B0000074604E0FFF7A8FDC01B022823D8286889
:100B10008007F7D4207800072CD57948A169D9B18E
:100B2000C0F80090FFF798FD074604E0FFF794FD3A
:100B3000C01B02280FD8686A8007F7D571484FF4A8
:100B4000FA510068B0FBF1F0009000BF0098411E20
:100B50000091FAD20EE080E0C0F80080FFF77CFD43
:100B6000074604E0FFF778FDC01B022875D8686AC5
:100B70008007F7D42078400760D5E8690027C000D7
:100B800008D4E86940F08050E861E869012700F086
:100B9000805000905C480168C90513D40168834601
:100BA00041F480710160FFF757FD824606E000BF07
:100BB000FFF752FDA0EB0A0064284ED8DBF80000D6
:100BC000C005F5D5E06801280AD008B1052813D082
:100BD000286A20F001002862286A20F0040002E060
:100BE000286A40F001002862E06841F2883B98B131
:100BF000FFF732FD82460BE0286A40F004002862CD
:100C0000EEE700BFFFF728FDA0EB0A0159455AD8CF
:100C1000286A8007F6D50CE0FFF71EFD824605E046
:100C2000FFF71AFDA0EB0A0159454CD8286A800746
:100C3000F6D41FB1E86920F08050E861E06988B31C
:100C40006968C1F38101022944D00228C6F8608096
:100C500004D0FFF701FD044638E034E0FFF7FCFC68
:100C6000074604E0FFF7F8FCC01B02282BD82868D1
:100C70008001F7D4206AB0F5803F05D16868A1688B
:100C800020F4003008436860D4E90801084369682B
:100C900021F4741108436860C6F86090FFF7DCFC2B
:100CA000044606E025E000BFFFF7D6FC001B022843
:100CB00009D828688001F7D51BE000BFFFF7CCFCFE
:100CC000001B022802D90320BDE8F88F28688001A4
:100CD000F4D40EE00128F7D06868226A00F480316D
:100CE000914204D1616A00F47010884201D0012061
:100CF000EAE70020E8E7000000100240000042425E
:100D0000800442422C000020007000407047704771
:100D100070B590F83C20012A26D0012480F83C4090
:100D2000022280F83D2003685A689D6822F0700610
:100D30000A6832435A600D4B02689A4208D0B2F1F9
:100D4000804F05D00A4B9A4202D00A4B9A4204D1F6
:100D5000496825F080031943916080F83D400021E7
:100D600080F83C10084670BD022070BD002C014088
:100D7000000400400008004010B5040003D094F8BF
:100D80003D0010B107E0012010BD002084F83C00B8
:100D9000204600F01FF8022084F83D00211D206845
:100DA00000F0CEFD012084F8460084F83E0084F86F
:100DB0003F0084F8400084F8410084F8420084F841
:100DC000430084F8440084F8450084F83D00002086
:100DD00010BD000008B500680649884208D10648E1
:100DE000C16941F00201C161C06900F002000090D8
:100DF00008BD0000000400400010024090F83D10C3
:100E0000012901D001207047022180F83D100168BE
:100E1000CA6842F00102CA6000680B49884208D0E3
:100E2000B0F1804F05D00949884202D00849884274
:100E300004D1816801F00701062903D0016841F05F
:100E40000101016000207047002C014000040040B7
:100E50000008004070B5044690F83C00012817D007
:100E6000012584F83C50022084F83D002068826807
:100E700022F0770222F47F4282600868502830D046
:100E80000DDC20284DD005DC98B310283BD148E07C
:100E9000022070BD302844D0402834D139E0602889
:100EA00028D0702806D0B0F5805F2CD0B0F5005F58
:100EB00029D10AE0CB68D1E90121206800F083FD47
:100EC0002068816841F0770109E0CB68D1E9012110
:100ED000206800F078FD2068816841F480418160DD
:100EE00011E0CA684968206800F022FE502120689D
:100EF00007E016E0CA684968206800F02AFE602111
:100F0000206800F06AFD84F83D50002084F83C0021
:100F100070BDCA684968206800F00AFE4021206858
:100F2000EFE7226801461046EBE7704770B50446CC
:100F3000006801694FF00005C943890715D4C168ED
:100F4000C943890711D4E91E016101202077206877
:100F500080698007204602D0FFF7E7FF04E000F039
:100F6000BFF8204600F04EF9257720680169C94393
:100F7000490717D4C168C943490713D46FF0040166
:100F80000161022020772068806910F4407F2046AC
:100F900002D0FFF7CAFF04E000F0A2F8204600F0FC
:100FA00031F9257720680169C943090716D4C1685A
:100FB000C943090712D46FF00801016104202077AA
:100FC0002068C0698007204602D0FFF7AEFF04E02A
:100FD00000F086F8204600F015F9257720680169B1
:100FE000C943C90617D4C168C943C90613D46FF0F1
:100FF00010010161082020772068C06910F4407F4B
:10100000204602D0FFF791FF04E000F069F8204687
:1010100000F0F8F8257720680169C943C90708D1AD
:10102000C168C943C90704D1891E0161204600F087
:1010300039F920680169C943090609D4C168C9435F
:10104000090605D46FF0800101612046FFF75EFEBE
:1010500020680169C943490609D4C168C9434906E2
:1010600005D46FF040010161204600F025F92068A9
:101070000169C94389060BD4C168C943890607D4ED
:101080006FF0200101612046BDE87040FFF73FBED0
:1010900070BD000000B585B0002100910191029162
:1010A000039100680B49884211D10B48816941F0D6
:1010B000080181618069694600F008000490012000
:1010C00000900220019003900448FFF7CFF905B08B
:1010D00000BD00000004004000100240000C014070
:1010E000704770B5044690F83C000D4601280AD0C0
:1010F000012084F83C0042B1042A18D0082A2AD0E2
:101100000C2A4DD139E0022070BD206800F06EFC41
:101110002068816941F0080181612068816921F0BE
:1011200004018161206881692A69114311E0206806
:1011300000F084FC2068816941F4006181612068CD
:10114000816921F480618161206881692A6941EAAD
:101150000221816124E0206800F09CFC2068C169C4
:1011600041F00801C1612068C16921F00401C16139
:101170002068C1692A69114311E0206800F0B6FCBB
:101180002068C16941F40061C1612068C16921F42E
:101190008061C1612068C1692A6941EA0221C16197
:1011A000002084F83C0070BD10B5040003D094F812
:1011B0003D0010B107E0012010BD002084F83C0084
:1011C000204600F01EF8022084F83D00211D206812
:1011D00000F0B6FB012084F8460084F83E0084F855
:1011E0003F0084F8400084F8410084F8420084F80D
:1011F000430084F8440084F8450084F83D00002052
:1012000010BD70477047000010B50446022249B176
:1012100004290ED0082913D094F84100012816D0D3
:10122000012010BD94F83E000128F9D184F83E2039
:101230000FE094F83F000128F2D184F83F2008E045
:1012400094F840000128EBD184F8402001E084F8B4
:1012500041200122206800F0A9FB0F492068884244
:1012600003D1426C42F4004242642068884208D0B4
:10127000B0F1804F05D00949884202D00849884220
:1012800004D1816801F00701062903D0016841F00B
:1012900001010160002010BD002C0140000400404D
:1012A0000008004000680349884201D1FFF7DAB91D
:1012B000704700000008004070477047704700000A
:1012C000F8B5026804461068D168536910F00F0F32
:1012D0004FF0000553D003F0010601F49077374337
:1012E0005FD0C20705D0CA0503D5226C42F00102C7
:1012F0002264420705D5DA0703D0226C42F00202CD
:101300002264820705D5DA0703D0226C42F004027A
:101310002264020707D501F02002324303D0226C79
:1013200042F008022264226C002A34D0800604D5E0
:10133000880602D5204600F03EFC20684069216CFA
:10134000C0F38010090700D430B3204600F01BFC26
:101350002068416949061BD5416921F0400141617E
:10136000A06BA8B158494163A06BFFF733F8002880
:1013700011D0A06B416B01B0BDE8F0400847830677
:101380000FD58B060DD52046BDE8F84000F013BC04
:101390002046FFF793FFF8BD2046FFF78FFF256437
:1013A000F8BD266B2023012E52D1C60650D5CE069D
:1013B0004ED5106850680090506940062AD5A16B40
:1013C000086840680004000CEAD0A68D8642E7D980
:1013D000E0858869202818D0D06820F48070D0601B
:1013E0002068416921F0010141612068416921F0D3
:1013F0004001416184F83E3025632068C16821F0D6
:101400001001C160A06BFEF7C2FFA08DE18D401AF4
:1014100081B219E0A08DE18D401A81B2E08D0028E3
:10142000BED00029BCD0D06820F49070D060206875
:10143000426922F00102426184F83E30256320684F
:10144000C26822F01002C2602046FFF736FFF8BDE6
:1014500005062BD50D0629D594F83D002128F6D197
:10146000A068B0F5805F01D12069B0B1206A411C4D
:101470002162216800784860E08C401E0004000C66
:10148000E084E4D12068C16821F08001C160206857
:10149000C16841F04001C160F8BD206A0088C0F316
:1014A00008005060206A801C2062E5E74006F3D502
:1014B0004806F1D5D168204621F04001D16084F87A
:1014C0003D3000F09BF8F8BD771B000870B50400B4
:1014D00004D094F83D00002510B106E0012070BD55
:1014E00084F83C50204600F023F8242084F83D0086
:1014F0002068C16821F40051C160204600F0B6FBAD
:101500002068016921F4904101612068416921F05E
:101510002A0141612068C16841F40051C16025641D
:10152000202084F83D0084F83E00002070BD0000BB
:1015300030B585B0002400940194029403940068AF
:10154000184988422BD11848C16941F40031C16162
:10155000C16901F400310491816941F004018161A4
:101560008069124D00F004000490042000900220D5
:1015700001900320039069462846FEF777FF082074
:10158000CDE90004694628460294FEF76FFF002269
:1015900005212620FFF7ECF82620FFF7DBF805B041
:1015A00030BD00000044004000100240000801402F
:1015B00090F83E30202B0ED159B152B190F83C300A
:1015C000012B08D0012380F83C300023036300F096
:1015D000A9BB012070470220704700000548017830
:1015E000183841708178491C8170012201490248F4
:1015F000FFF7DEBF18000020D80000207047FEE78C
:101600002DE9F04186B00024204800940194029412
:101610000394816941F020018161816901F0200119
:101620000491816941F004018161816901F0040143
:101630000491816941F0080181618069144F00F0D3
:1016400008000490002203213846FEF7FFFFDFF870
:101650004480002204214046FEF7F8FF03200125C4
:101660000226CDE90005CDE9024669463846FEF777
:10167000FDFE0420CDE90005CDE90246694640465D
:10168000FEF7F4FE06B0BDE8F08100000010024055
:1016900000080140000C014010B58EB000240794F2
:1016A000089409940A940B941C2168460C94FEF744
:1016B00009FE1E481C4901604721C0E9011440F29F
:1016C000E731C0E903148461FFF756FB08B172B635
:1016D000FEE74FF48050079007A91448FFF7BAFBC4
:1016E00008B172B6FEE71148FFF75EFD08B172B6A9
:1016F000FEE70B940BA90D480C94FFF709FB08B10A
:1017000072B6FEE76020CDE9000402940822694623
:1017100006480494FFF7E5FC08B172B6FEE70348FB
:10172000FFF7B8FC0EB010BD000400409000002090
:10173000FEE7FEE7DFF88490DFF884A0214C206903
:1017400000F0E0FB606900F0DDFB1E491B48012250
:1017500018314830FFF72CFF677807EB870040000F
:10176000E080D9F80010C8632078804601F07DFB46
:1017700005460E46A8EB070001F060FB2A463346FB
:1017800001F004FA01F0D0F9A060052F08D120790A
:10179000401C2071606900F09BFB002000F0B2FB50
:1017A000A1685145CBDDE078401CE070206900F075
:1017B0008FFB002000F0A6FBC1E700009000002096
:1017C0006666663F00000020DFF86C90DFF86CA0D2
:1017D0001B4C00251A4960780122401C6070164895
:1017E00018314830FFF7E4FE6078804600EB800057
:1017F0004000E080D9F80010C8632078834601F0EB
:1018000034FB06460F46ABEB080001F017FB3246EF
:101810003B4601F0BBF901F087F9A060504502DAC0
:10182000E06800F055FB642000F01CFB6D1CEDB27D
:10183000642DCFD3CDE7000090000020CDCCCC3E6E
:1018400000000020DFF85490DFF854A0154C154933
:101850001248012218314830FFF7AAFE677807EBDB
:1018600087004000E080D9F80010C86320788046E7
:1018700001F0FBFA05460E46A8EB070001F0DEFA80
:101880002A46334601F082F901F04EF9A060504536
:10189000DDDAE06800F01CFBD9E7000090000020D2
:1018A000CDCCCC3E0000002010B5502080F3118834
:1018B000BFF34F8FBFF36F8F01F02CF818B10449BD
:1018C0004FF080500860002080F3118810BD0000A8
:1018D00004ED00E030B58FB028216846FEF7F2FC39
:1018E00014210AA8FEF7EEFC01210804CDE900103E
:1018F0000024029402250491CDE907504FF4E01032
:1019000009906846FFF772F808B172B6FEE70F203B
:10191000CDE90A054FF48060CDE90C4002210AA808
:101920000E94FEF757FF002801D072B6FEE70FB005
:1019300030BD70470148FFF7F9BA0000700300207E
:10194000F0B50268164B174C174D4FF08047984280
:1019500005D0B84203D0A04201D0A84203D122F062
:1019600070064A683243984205D0B84203D0A0427C
:1019700001D0A84203D122F44074CA6822434C69C2
:1019800022F08002224302608A68C2620A68826290
:10199000984201D10969016301214161F0BD000054
:1019A000002C0140000400400008004010B501F088
:1019B0001F030121046A99408C430462016A9A4022
:1019C0001143016210BD10B5846842EA032224F479
:1019D0007F440A432243826010BD826822F0700275
:1019E0000A4342F0070181607047000030B5026A87
:1019F00022F001020262026A4368846924F07305DE
:101A00000C682C4322F002058A682A430A4DA8423A
:101A10000BD122F00805CA6823F440732A434D69AC
:101A200022F004021D438B692B43436084614968A3
:101A30004163026230BD0000002C014030B5026AF3
:101A400022F010020262026A436884690D6824F47D
:101A5000E64444EA05248D6822F0200242EA051299
:101A60000B4DA8420ED1CD6822F0800242EA051249
:101A70004D6923F4406343EA85038D6922F04002F7
:101A800043EA85034360846149688163026230BD33
:101A9000002C014030B5026A22F480720262036AAF
:101AA0004268C46923F4007324F073050C682C4366
:101AB0008D6843EA05230C4DA8420ED1CD6823F46E
:101AC000006343EA05234D6922F4405242EA0512BD
:101AD0008D6923F4806342EA05124260C46149685B
:101AE000C163036230BD0000002C014030B5026AC2
:101AF00022F480520262046A4268C3690D6823F4CA
:101B0000E64343EA05238D6824F4005444EA05348F
:101B1000064DA84204D14D6922F4804242EA851262
:101B20004260C36149680164046230BD002C014019
:101B300010B5036A046A24F001040462846924F085
:101B4000F00444EA021423F00A020A4384610262A8
:101B500010BD10B5036A23F0100303628369046AA1
:101B600023F4704343EA023224F0A00343EA011154
:101B70008261016210BD10B5406A0021C185C18437
:101B8000FFF79CFB10BD0168CA6822F49072CA601E
:101B900001684A6922F001024A61016B012904D1FE
:101BA0000168CA6822F01002CA60202180F83E1045
:101BB00000210163704708B590F83E10222901D03A
:101BC000022008BD82684FF480539A4201D1016916
:101BD00021B1816A9A421BD04AB10AE00268816A47
:101BE0005268C2F308020A80816A891C08E002690F
:101BF00072B10268526802F07F020A70816A491C61
:101C00008162C18D491E0904090CC18503D019E008
:101C100002685268F1E70168CA6822F02002CA60CF
:101C20000168CA6822F48072CA6001684A6922F0B9
:101C300001024A61202180F83E10016B012903D086
:101C4000FFF7CCFC002008BD002101630168CA68D1
:101C500022F01002CA6001680A68D20602D50A683A
:101C600049680091818DFFF728FBEBE770B50446CA
:101C700000680169E26821F4405111430161216962
:101C8000A0680843616908432168CA6841F20C638F
:101C90009A430243CA6020684169A26921F44071F5
:101CA000114341611E492068884202D1FEF758FE67
:101CB00001E0FEF745FE00EBC00101EB0012606899
:101CC00064218000B2FBF0F3B3FBF1F36FF0180670
:101CD0007343B2FBF0F5B2FBF0F605EB830532235C
:101CE00003EB0515B5FBF1F5B6FBF1F605F0F005D4
:101CF00005EB0615B2FBF0F6B2FBF0F0B0FBF1F02D
:101D00006FF01802504306EB800003EB0010B0FBAD
:101D1000F1F0216800F00F002844886070BD0000D9
:101D20000038014081628285C2850021016422223F
:101D300080F83E2080F83C100168CA6842F4807246
:101D4000CA6001684A6942F001024A610068C168DC
:101D500041F02001C1600020704700000148FFF7FA
:101D6000AFBA0000D8000020FEE70907090E0028DE
:101D700004DB00F1E02080F80014704700F00F0051
:101D800000F1E02080F8141D7047EFF30580002873
:101D900000D001207047000096B0FEF76BFCFFF703
:101DA00099FDFFF72DFCFFF777FC274825490C220A
:101DB00001604FF4E131416000218160C160C0E900
:101DC00004128161C161FFF781FB08B172B6FEE7C1
:101DD0001E4C012211462046FEF738FC002202214B
:101DE0002046FEF733FC012219491748FFF7E0FBB4
:101DF000154808214838FFF707FA1C22154968469C
:101E0000FEF72EFA0021684600F038F8104C114910
:101E1000183C1C22E0601C3107A8FEF721FA0021C3
:101E200007A800F02BF80B4920611C2238310EA8BE
:101E3000FEF716FA00210EA800F020F8606100F00D
:101E400018F8FEE700440040D800002000080140D8
:101E500018000020442F000801460020842900D0EB
:101E6000C81C704710B500B9012000F079FB0020B4
:101E700010BD10B500F0D8FB002010BD7FB50D4699
:101E800004464169B0F9080081B1A16971B1FFF759
:101E9000E3FFD4E905128DE80700D4E900102B46D2
:101EA000226900F00CFD039004B070BDFFF7D4FF71
:101EB00003A9CDE90001208A2B4682B2D4E90010A3
:101EC00000F0D0FC012801D00020EDE70398EBE7FB
:101ED00010B50446FFF759FF002820460BD000F04C
:101EE000DFFD012809D1064900070860BFF34F8FC5
:101EF000BFF36F8F01E000F059FB002010BD000020
:101F000004ED00E010B500F0C5FB002010BD00009E
:101F10002DE9F041184C0F46054666692068001D02
:101F200000F030FA38B9206890F82C100120884071
:101F3000A1698143A161681C07D137B12168BDE85F
:101F4000F0410E48091D00F061BA20683544B542E1
:101F50004560216805D2A068BDE8F041091D00F088
:101F60003DBA6068091D00F039FA206B854200D245
:101F70002563BDE8F08100003000002094040020BB
:101F80002DE9F041054600F04DFA2E4C2069401C29
:101F9000206120682C4F10B1E06940B32DE025602E
:101FA0002069012829D1002606EB860007EB800076
:101FB00000F006FA761C072EF6D323488C3000F08A
:101FC000FFF92148A03000F0FBF91F48B43000F0C1
:101FD000F7F91D48C83000F0F3F91B48DC3000F079
:101FE000EFF919488C3060601430A06005E020687B
:101FF000E96AC06A884200D82560E06A401CE06255
:10200000E96A0120A26988401043A06101EB8100C8
:1020100007EB8000291D00F0F9F900F023FAE069D0
:1020200000280CD02068E96AC06A884207D20749B4
:102030004FF080500860BFF34F8FBFF36F8FBDE844
:10204000F081000030000020B803002004ED00E023
:1020500010B5044690F8510058B101280CD0022860
:102060000FD0502080F31188BFF34F8FBFF36F8FD5
:10207000FEE7206B00F00AFA2046BDE8104000F0B1
:1020800005BA10BD10484FF44061420706D0C01D8C
:102090000D4920F00700411AC1F540610B4A0023A9
:1020A0000144C2E900030839103A21F00701116028
:1020B0004B600B600B1AC0E9001393604FF00040B7
:1020C0005360D06070470000A80400207C0000200E
:1020D000144E154CA6F1C8074FF08058DFF84C900D
:1020E00012E000BF00F09EF9F068C568281D00F0FE
:1020F00049F92069401E2061E068401EE06000F060
:10210000B1F92846FFF7A4FFE0680028EAD1386853
:102110000128F9D9C9F80080BFF34F8FBFF36F8F43
:10212000F2E70000800400203000002004ED00E011
:102130002DE9F0479A46DDE9098481466FF00303F3
:10214000206B03EB82021044089D20F00706700705
:1021500007D0502080F31188BFF34F8FBFF36F8FEC
:10216000FEE723180A5C83F834200A5C12B1401C95
:102170001028F6D3002784F84370072D00D30625D6
:10218000E562C4E91157201D00F025F904F118009B
:1021900000F021F92461C5F107006462A061E764E1
:1021A00084F8507052464946304600F0D9F8206015
:1021B000B8F1000F01D0C8F80040BDE8F08700007A
:1021C00030B5114900E011460A688242FBD34B68E2
:1021D0005C18844203D1406818444860084643684C
:1021E0001C18944209D1084C103C2468A24209D022
:1021F00052681A4442600A6812680260814200D044
:10220000086030BD0460F9E77C00002006484168A2
:10221000096829B14168C968C9684968016370479C
:102220004FF0FF31FAE70000300000200848406816
:10223000401C4FF0500080F3118804D0BFF34F8F43
:10224000BFF36F8FFEE7BFF34F8FBFF36F8FFEE7D4
:1022500084000020002150B10A4B42699A420FD1FC
:10226000806AA3F1280290420AD040B108E05020D1
:1022700080F31188BFF34F8FBFF36F8FFEE701210B
:1022800008467047940400202DE9F04105460027D8
:1022900000F05EFA314E306808B9FFF7F3FEF068DF
:1022A00005424BD1C5B3083568070ED005F00700CD
:1022B000C0F108000544680707D0502080F311885A
:1022C000BFF34F8FBFF36F8FFEE72DB3706885426A
:1022D00034D82248103001460C6801E020460C46F4
:1022E0006168A94202D221680029F7D131688C4285
:1022F00024D007682168016060680837411B1029F5
:102300000FD96019420708D0502080F31188BFF31D
:102310004F8FBFF36F8FFEE710E041606560FFF7FE
:102320004FFF61687068401A7060B268904200D2D6
:10233000B060F06801430020C4E9000100F04EFBEA
:10234000780707D0502080F31188BFF34F8FBFF379
:102350006F8FFEE73846BDE8F08100006C0000207A
:1023600010B5031F4FF080741C601B1F21F001018A
:102370001960191F024B0B60143940380A6010BDF8
:102380002D220008D0E9013201699A60D0E90123C9
:102390005A604A68824201D182684A600022026122
:1023A0000868401E0860086870470000034B03601F
:1023B00003F1540008608020106070471C01002069
:1023C00000F108014FF0FF32C0E90112C160016164
:1023D00000210160704700210161704730B50B6832
:1023E0005A1C02D000F1080202E0026904E0224611
:1023F000546825689D42FAD953684B6099608A6099
:10240000516008610168491C016030BD42684A6042
:1024100093688B6093685960916008610168491CFA
:1024200001607047502080F31188BFF34F8FBFF3D6
:102430006F8F0A494868401C486001280CD1084841
:10244000006810F0FF0F07D0502080F31188BFF311
:102450004F8FBFF36F8FFEE77047000084000020AE
:1024600004ED00E00849486828B1401E486001D1E9
:1024700080F311887047502080F31188BFF34F8F8D
:10248000BFF36F8FFEE700008400002070B50028C6
:1024900027D0144DA0F108046168E868014207D113
:1024A000502080F31188BFF34F8FBFF36F8FFEE78B
:1024B00022683AB1502080F31188BFF34F8FBFF3E9
:1024C0006F8FFEE78143616000F042F960686968E0
:1024D000084468602046FFF773FEBDE8704000F0D6
:1024E0007DBA70BD6C0000204FF0E020002101613A
:1024F000816105494FF47A720968B1FBF2F1491E16
:1025000041610721016170472C00002010B5FDF7E3
:1025100083FE114910280ED300F1E02090F8F0035B
:102520000A78904207D2502080F31188BFF34F8F72
:10253000BFF36F8FFEE709480068896800F4E06028
:10254000884207D9502080F31188BFF34F8FBFF323
:102550006F8FFEE710BD0000840000200CED00E04E
:1025600010B5020014D00F48806B38B1502080F3B2
:102570001188BFF34F8FBFF36F8FFEE700F0E8F8CD
:1025800000211046FFF7C4FC00F028FA002807D10C
:1025900005494FF080500860BFF34F8FBFF36F8F36
:1025A00010BD00003000002004ED00E070B5040014
:1025B0002BD01A4D286884422FD0FFF733FF2046D6
:1025C000FFF748FEE8B1201DFFF7DCFEE06A0121BD
:1025D000AA6981401143A961114900EB800001EB18
:1025E0008000211DFFF712FFE06A2968C96A88424E
:1025F00007D30C494FF080500860BFF34F8FBFF3F3
:102600006F8FBDE87040FFF72DBF502080F3118819
:10261000BFF34F8FBFF36F8FFEE770BD3000002018
:10262000B803002004ED00E010B586B00024039448
:1026300005AA04A903A80494FFF7B8FEDDE9030185
:102640000094CDE9011000230EA11048059A00F076
:1026500036F90F490028486311D0502080F31188C3
:10266000BFF34F8FBFF36F8F4FF0FF300863012030
:10267000C8614C6106B0BDE8104000F09FB806B0DC
:1026800010BD000049444C4500000000D120000866
:102690003000002070B50446FFF7C4FE294D04B990
:1026A0002C68201DFFF76EFE58B9E06A264A00EB41
:1026B000800152F8211021B901218140A869884385
:1026C000A861A06A18B104F11800FFF75BFE1E486C
:1026D000211DDC30FFF79AFE94F8500000260128F7
:1026E00001D184F85060FFF7BDFEE86928B1FFF71B
:1026F00099FEFFF78BFDFFF7B5FE2868844213D1E2
:10270000E86990B1A86B38B1502080F31188BFF30D
:102710004F8FBFF36F8FFEE70C494FF0805008607A
:10272000BFF34F8FBFF36F8F70BD0748DC30006879
:102730002969884201D12E6070BDBDE8704000F06B
:102740000FB8000030000020B803002004ED00E0C6
:102750000248816B491C81637047000030000020F3
:102760001448816B11B1012141627047002141621F
:102770008169B1FA81F1C1F11F0101EB81020E49BA
:1027800051F822306BB101EB820101F108034A6874
:1027900052684A609A4201D152684A60D168016029
:1027A0007047502080F31188BFF34F8FBFF36F8FB6
:1027B000FEE7000030000020B80300201CB52649C9
:1027C00008780190FF20087008788DF800009DF8C7
:1027D00000009DF8002000F0F000904207D050204B
:1027E00080F31188BFF34F8FBFF36F8FFEE79DF823
:1027F00000001A4B00F0500018700720986005E0A8
:102800009DF8002052008DF80020401E9DF8002009
:102810001206F5D49860032807D0502080F3118861
:10282000BFF34F8FBFF36F8FFEE74FF44070986098
:10283000019808700A48016841F47001016001685C
:1028400041F070410160FFF74FFE00205860FDF736
:10285000ADFC00201CBD000000E400E0840000206E
:1028600020ED00E02DE9FF5F8346DDE90E87994604
:1028700016468A469000FFF707FD05001CD054203D
:10288000FFF702FD040014D00020256384F85100F6
:10289000CDE90240CDE900874B46324651465846C5
:1028A000FFF746FC2046FFF76BFB012004B0BDE8B4
:1028B000F09F2846FFF7EAFD4FF0FF30F6E7F0B54E
:1028C00085B0DDE90B640A9DA6B1DCB15427009701
:1028D0002663022684F85160002604AFCDE9024643
:1028E000CDE90057FFF724FC2046FFF749FB049889
:1028F00005B0F0BD502080F31188BFF34F8FBFF3B8
:102900006F8FFEE7502080F31188BFF34F8FBFF326
:102910006F8FFEE72DE9F0412E4C0027A06B40B1F0
:10292000206A401C2062606A00B101273846BDE879
:10293000F0816669761C666113D16068006838B101
:10294000502080F31188BFF34F8FBFF36F8FFEE7E6
:102950006068A1686160A060A06A401CA062FFF787
:1029600055FC206BDFF87080864209D360680068F0
:1029700080B16068C068C568686886420DD220630F
:102980002068C06A00EB800158F821000128CAD9EC
:102990000127C8E74FF0FF30F1E7281DFFF7F2FCF1
:1029A000A86A18B105F11800FFF7ECFCE86A0121EC
:1029B000A26981401143A16100EB800108EB810015
:1029C000291DFFF723FDE86A2168C96A8842CDD333
:1029D0000127CBE730000020B80300202DE9F047A5
:1029E0002C4D00242746A86B38B1FFF71BFDA86BC0
:1029F000401EA863A86B40B146E0502080F31188C8
:102A0000BFF34F8FBFF36F8FFEE72969224E01207E
:102A1000D1B3A6F1B40980463068E8B1F068C46863
:102A200004F11800FFF7AEFC201DFFF7ABFCE06AD5
:102A3000AA6908FA00F11143A96100EB800109EBD2
:102A40008100211DFFF7E2FCE06A2968C96A88421B
:102A5000E2D3C5F82480DFE70CB1FFF7D7FB2C6A7F
:102A600044B14646FFF756FF00B16E62641EF9D1CD
:102A700000202862686A38B10849012738070860D1
:102A8000BFF34F8FBFF36F8FFFF7ECFC3846BDE805
:102A9000F0870000300000206C04002004ED00E00E
:102AA0002DE9F0410027040015D0FFF72FFD50203D
:102AB000EFF3118580F31188BFF34F8FBFF36F8F52
:102AC0002046FFF7C7FB30B3154EB06B58B104F189
:102AD000180114481DE0502080F31188BFF34F8F78
:102AE000BFF36F8FFEE7E06A3168C96A884200D39E
:102AF0000127201DFFF746FCE16A0120B2698840EA
:102B00001043B06101EB81000649B43901EB80004C
:102B1000211DFFF77BFC85F311883846BDE8F08165
:102B2000300000206C04002021F00042A2F160522D
:102B3000B2F5801F01F0004328BFD2F17F6C0BD9A2
:102B40005FEA001C43EAC20242EB507018BF7047B4
:102B500028BF20F001007047B2F5801FBCBF1846A7
:102B600070474FEA410C1CF5001F02D2084600F0E6
:102B7000E3B970B500F08CF900000089FFF7F6BFEB
:102B80004FF00040A0F58000704700002DE9C041E3
:102B900030B4DFF8A0C23CEA111418BF3CEA1314A9
:102BA00000F0EC8081EA03051CEA111444EAD574B4
:102BB00018BF1CEA131500F0C780A4EB05044FF002
:102BC000004545EAC12145EAC32341EA505143EAA1
:102BD000525304F17F74994204F500344FEAC02047
:102BE0004FEAC22208BF904200F09C804FEA136572
:102BF0000FF24016765D4FEA134506FB05F7C7F165
:102C0000807706FB07F74FEAD737A7FB03687642C2
:102C1000C8F58038A7FB06CE38BFA8F1010807FB2E
:102C200008E64FF0000EA6FB028CE6FB03CEDCF1BB
:102C3000000CCEF1004E38BFAEF1010EA6FB0C58D1
:102C40004FF000074FF00005E6FB0E87A1FB08C61A
:102C5000A0FB07CE16EB0E0645F10005E1FB07656C
:102C600015F1E04E7EBFA4F580345FEA46066D4163
:102C700016F1800745F100054FEA17274FEA06666F
:102C800047EA0567A6F1DE46B6F1805F4FEA1525F3
:102C90001FD9384624F0010C05EBC471BCF1FE6F5E
:102CA00001EB0C1102D8F0BCBDE8008124425CBFEE
:102CB00001F5801E9EEAC47F02D4F0BCBDE800810D
:102CC000244238D4F0BCA1F1C041BDE8004100F07D
:102CD0002DB94FEAD22242EA43524FEAD323A7FB4F
:102CE00002864FEAD02040EA415007FB03661EEA05
:102CF0000E0F4FEAD12105FB026658BFA6EB005626
:102D0000B6EB00564FEA520E4EEAC37E18EB0E0E9B
:102D100056EB530EBDD518EB02085E417F1C55F1F2
:102D20000005B6E74FF480154FF000074FF000069E
:102D30004FF00008ADE7F0BC4FF0000001F1C041DA
:102D400001F00041BDE8008111EA0C1F0CEA1315E7
:102D500000D00CE013EA0C1F00F025804FF00000BB
:102D6000F0BC81EA030101F00041BDE80081F0BC44
:102D7000BDE8004181EA030100F0D8B8F0BCBDE82D
:102D8000004170B500F084F8097EFC3E00F007B801
:102D900081EA03014FF0000001F00041704781EA31
:102DA000030100F0C3B8F0BCBDE800414FF00000E3
:102DB00021497047FFFDFBF9F7F5F4F2F0EEEDEB7A
:102DC000E9E8E6E4E3E1E0DEDDDBDAD8D7D5D4D329
:102DD000D1D0CFCDCCCBCAC8C7C6C5C4C2C1C0BF75
:102DE000BEBDBCBBBAB9B8B7B6B5B4B3B2B1B0AF7B
:102DF000AEADACABAAA9A8A8A7A6A5A4A3A3A2A15F
:102E0000A09F9F9E9D9C9C9B9A9999989797969519
:102E100095949393929191908F8F8E8E8D8C8C8BB5
:102E20008B8A89898888878786858584848383823D
:102E3000828181800000FF070000F87F10F00042CF
:102E400048BF4042B0FA80F310FA03F10AD0C3F150
:102E50001D0303F580634FEA415002EB035202EB7E
:102E6000D12170474FF000007047B0FA80F310FA9C
:102E700003F10AD0C3F11D0303F580634FEA41500B
:102E80004FEA035202EBD12170474FF00000704728
:102E90000EF1020E2EF0030E5EF8046B364205D4DE
:102EA000012A43EB030515F5001F12D8012841EB59
:102EB000010C1CF5001F0CD80ED14FEAD17C15F582
:102EC000001F0CEB4C0C0CF1020C08BF4CEBD37C3C
:102ED00004E04FF0080C01E04FEAD37C0CEB4C050A
:102EE00026FA05F606F00706B6F1040C06D20EEB3C
:102EF000860CBDE870404CF0010C6047DFE80CF038
:102F0000090B02024FF000414FF00000A1F5002133
:102F100070BD19461046012851EB010418BFD4F5C5
:102F2000001484BF002001F0004170BD0808A0F526
:102F300000114FEA31017047FF2141EAD050C0052E
:102F400070470000B82F0008351700080000000087
:102F500000000000800000000000000000000000F1
:102F6000B02F0008C9170008FFFF00000000000094
:102F7000800000000000000000000000C42F0008D6
:102F800045180008FFFF000000000000800000005E
:102F90000000000000000000000000000000000031
:102FA00001020304060708090000000001020304EF
:102FB0007461736B4142530064656661756C74544F
:102FC00061736B007461736B4E6F726D616C0000A6
:102FD000F02F0008000000209000000028010008E9
:102FE000803000089000002078160000440100089E
:102FF000640000000000000000000000000000006D
:1030000000000000000000000000000000000000C0
:103010000100000010000000000000000024F40087
:1030200000000000000000000000000000000000A0
:103030000000000000000000000000000000000090
:103040000000000000000000000000000000000080
:103050000000000000000000000000000000000070
:103060000000000000000000000000000000000060
:103070000000000000000000AAAAAAAA00000000A8
:04000005080000ED02
:00000001FF
